:020000040040BA
:10000000582940207D0A40007B0A40007B0A4000BE
:100010007B0A40007B0A40007B0A40000000000091
:100020000000000000000000000000007B0A40000B
:100030007B0A4000000000007B0A40007B0A400071
:100040007B0A40007B0A40007B0A4000490F4000C9
:100050007B0A40007B0A40007B0A40007B0A40008C
:100060007B0A400000000000D5034000E903400087
:10007000FD0340007B0A4000850F40007B0A4000E2
:1000800011044000250440007B0A40007B0A400028
:100090007B0A40007B0A40007B0A4000ED0E4000D6
:1000A0007B0A40007B0A40007B0A40007B0A40003C
:1000B0007B0A40007B0A40007B0A40007B0A40002C
:1000C0007B0A40007B0A40007B0A40007B0A40001C
:1000D000000000007B0A4000000000007B0A400096
:1000E0007B0A40007B0A40007B0A40007B0A4000FC
:1000F0007B0A40007B0A40007B0A40007B0A4000EC
:100100007B0A40007B0A40007B0A40007B0A4000DB
:100110007B0A40000000000000000000000000001A
:100120007B0A40007B0A40007B0A40007B0A4000BB
:100130007B0A4000000000007B0A40007B0A400070
:1001400010B5054C237833B9044B13B10448AFF311
:1001500000800123237010BD4C08402000000000E7
:10016000B02240000C4B43B10C480D4910B5AFF321
:1001700000800C48036823B910BD0A48036833B9EE
:100180007047094B002BF7D0BDE810401847064BCD
:10019000002BF5D0184700BF00000000B02240003F
:1001A00050084020B02240000000000010B5104868
:1001B000104B98473E2100200F4B98470F4CA0470B
:1001C0000028FCD00E4B98470E4A0F4B9A620F4CFA
:1001D000A0470028FCD04FF496700D4B9847602044
:1001E0000C4B98470C4B98470C48024B984710BD56
:1001F00000A3E111510C4000D50440002905400046
:1002000039054000013F182000060E404905400016
:100210003904400071044000450B40008C864700C3
:100220002DE9F04180B90C469046002A0FDD8F1869
:10023000084E094D306821462B6898470134BC426E
:10024000F8D14046BDE8F0814FF0FF38F9E780462D
:10025000F7E700BF28094020200940200138022884
:1002600015D82DE9F0410E4614469AB10D46DFF837
:1002700038800C4FD8F8000015F8011B3B689847F0
:1002800000280ADBA81B013CF4D1BDE8F0814FF047
:10029000FF3070471046BDE8F0814FF0FF30BDE8F9
:1002A000F08100BF240940202809402001637047E5
:1002B000416370474264B1F1C05F3AD013D8B1F1E5
:1002C000006F25D0B1F1805F0AD1036F134303673C
:1002D000436F416F0B4023EA02034367426070475C
:1002E0000029FBD17047B1F1205F21D009D8B1F1CD
:1002F000005FF3D1036F13430367436F13434367F7
:10030000ECE7B1F1405F13D0B1F1605F10D0E5E7E9
:1003100010B4016F046FD34321401C46194001679C
:10032000436F416F0B402340436742605DF8044BCD
:100330007047036F016F0B4023EA02030367436FAB
:1003400013434367CAE710B4019C41644CB901668A
:100350004BB101654AB94163016101605DF8044B2D
:1003600070474166F4E74165F4E70163F4E7836BA6
:100370000B4214BF012000207047C06C7047806C96
:10038000704700002DE9F041044688460E4B98471F
:10039000054620460D4B9847054013D00C4C04F100
:1003A000600603E0B4420DD010345DB120684045D2
:1003B000F8D161682942F5D0E3689847636825EA77
:1003C0000305EFE7BDE8F0817B0340007F034000B9
:1003D0006808402008B50A210148024B984708BD2B
:1003E000000E0E408503400008B50B210148024B6A
:1003F000984708BD00100E408503400008B50C2149
:100400000148024B984708BD00120E40850340008A
:1004100008B510210148024B984708BD00140E4052
:100420008503400008B511210148024B984708BDDB
:1004300000160E4085034000032811D0042812D076
:1004400002280CBF4FF480710021084A136B23F47B
:1004500040730B431363936E13F0080FFBD0704788
:100460004FF44071F1E74FF40071EEE700060E40E3
:10047000174A136B23F0700318431063936E13F045
:10048000080F0AD14FF4805311498A6E12F0080FF9
:1004900003D1013BF9D1012070470D4A136B23F0C2
:1004A000030343F002031363936E13F0080F0AD1A2
:1004B0004FF4805306498A6E12F0080F05D1013BB4
:1004C000F9D101207047002070470020704700BF1D
:1004D00000060E40A0B90E48036A090289B20D4A0F
:1004E0001A400D4B1343194301620246936E13F0F9
:1004F000010FFBD0064A116A084B0B431362704789
:1005000003490B6A064A1A40064B13430B627047B5
:1005100000060E40FCFFC8FF010037000000370155
:10052000FCFFC8FE02003701024B986E00F48030D9
:10053000704700BF00060E404FF00052014B9A6218
:10054000704700BF00060E40024B986E00F002009C
:10055000704700BF00060E403F281ED81F280CD849
:10056000114B9A6901238340934318D0012303FA66
:1005700000F00D4B18610020704720380A4BD3F86B
:1005800008210123834093430BD0012303FA00F099
:10059000054BC3F800010020704701207047002080
:1005A00070470020704700BF00060E40034B1A6FD3
:1005B000C0F3120010431867704700BF00060E40DA
:1005C00070470000104A136F23F4C00343F4800304
:1005D0001367116A0D4B0B431362936E13F0080FF0
:1005E000FBD04FF4FA7300BF013BFCD1064A136AFB
:1005F00013F0080FFBD0044A136F23F4C00343F435
:1006000080031367704700BF00060E4004003700E8
:100610002DE9F843431E042B00F20581DFE813F0B7
:100620000500050013001300F400804A136923F04D
:100630000403136101227E4B1A70BFF35F8F62B611
:1006400030BFBDE8F883044603280CBF00204FF4F8
:100650000010784B984772B6BFF35F8F0022744B3F
:100660001A700122744B1A70744B1F6A1D6B744A06
:10067000D2F800809E6A734A3A431A6205F0030971
:10068000B9F1010F40F2898025F0030141F0010129
:1006900019631A46936E13F0080FFBD011F0700F18
:1006A00008D021F07001654B19631A46936E13F060
:1006B000080FFBD0644B9847604A936E13F4003FD9
:1006C000FBD05E4A116A614B0B4043F45C1313622A
:1006D000936E13F4803FFBD028F47063584A136084
:1006E000042C5CD0524C01232370BFF35F8F62B6A1
:1006F000574B984772B6BFF35F8F0023237017F0F4
:10070000020F55D04D4A136A52491940524B0B43C0
:100710001362116A514B0B4043F45C131362504B4C
:100720003340002B6ED046F00056444B9E620221AF
:10073000B9F1020F04D1414A936E13F0020FFBD0BE
:100740003E4A136B23F0700305F0700003431363FC
:10075000936E13F0080FFBD0394BC3F80080A3F55C
:10076000C0631D631A46936E13F0080FFBD0334A23
:10077000936E0B42FCD000222F4B1A70394B1B6832
:100780001BB198470022374B1A600122284B1A7080
:10079000BFF35F8F62B6BDE8F88329467EE7A2F516
:1007A000C062116A304B0B4043F45C13136299E74B
:1007B00017F0010FB3D0214B1B6A13F0010F0BD1BF
:1007C0001E490B6A294A1A40294B13430B620A46F9
:1007D000936E13F0010FFBD0184B1B6A13F0807F50
:1007E00008D1164A116A234B0B431362936E13F41C
:1007F000803FFBD0114A116A184B0B4043F45C1345
:1008000013628CE7002193E7084A136943F004035D
:100810001361194A194B1A600122054B1A70BFF374
:100820005F8F62B630BFBDE8F88300BF00ED00E027
:1008300000004020C1054000D808402000060E40BE
:10084000000C0E400800370039054000FFFFC8FECD
:10085000C5054000FCFFC8FE0200370187FFC8FF46
:100860000000FF07DC084020FEFFC8FFFCFFC8FFB8
:100870000100370000003701040000A510180E40E9
:10088000034B1B6843F48023194301600020704729
:10089000E0084020044A136823F4801313600268C0
:1008A00013430360704700BFE00840200268034B19
:1008B0001B68194311430160704700BFE0084020E6
:1008C000036823EA0101024B1B681943016070476A
:1008D000E0084020826883689A4203D08268836877
:1008E0009342FBD118467047C068704770B5064602
:1008F0000D46046804F480344FF4803109480A4BF3
:1009000098472DB94FF0FF33736024B9002070BDB4
:10091000013D7560F9E74FF480310248034B984779
:10092000F4E700BF30180E40C1084000AD08400099
:10093000C160704700EB8111086A7047436913F08A
:10094000020F02D0C1610020704701207047436947
:1009500013F0010F03D083690B7000207047012052
:10096000704710B40B01934214D9C9004B0803EB34
:10097000C202B2FBF1F2D3085C1E4FF6FE718C424C
:1009800001D9012017E0416841F4002141600CE0E9
:10099000012010E0590801EBC202B2FBF3F2D308C8
:1009A0005C1E4FF6FE718C42F2D8120402F4E02273
:1009B0001A43026200205DF8044B7047084BC0F8F0
:1009C000E43000234360436283628823036024236E
:1009D00003604FF4807303604FF40023036070479B
:1009E0000041535570B505460C4616460F4B9847C7
:1009F00000220F4B1A60A4B13246216828460D4BE5
:100A00009847024678B96368A1680B4321690B4394
:100A1000E1680B4306490B6069680B436B60104645
:100A200070BD0122FBE70122F9E700BFBD094000CC
:100A3000E40840206309400040230360704710230E
:100A4000036070478160704740697047436913F0E5
:100A5000020F04D0C1F30801C161002070470120DA
:100A60007047436913F0010F05D08369C3F308038E
:100A70000B600020704701207047FEE700B583B08F
:100A8000254B264A9A4210D0254B234A9A420CD233
:100A9000013B9B1A23F00303043313441F4951F80D
:100AA000040B42F8040B9A42F9D11E4B1E4A9A429B
:100AB0000AD2013B9B1A23F00303043313440021A1
:100AC00042F8041B9342FBD1184A194B23F07F03D1
:100AD0009360EFF31083B3FA83F35B09019372B66B
:100AE000BFF35F8F0022134B1A700199124A1368EB
:100AF00043F470031360BFF34F8FBFF36F8F29B1BF
:100B000001220C4B1A70BFF35F8F62B60B4B9847F4
:100B10000B4B9847FEE700BF00004020B02240008A
:100B20004C084020540940204C08402000ED00E0D3
:100B3000000040000000402088ED00E091114000DE
:100B4000BD0F40003B4B1B6B03F00303012B1DD07B
:100B500083B1022B36D0374B1B6B03F07003702B25
:100B60005FD0344B1A6B3449C2F302120B68D34086
:100B70000B607047314B5B6913F0800F14BF4FF46B
:100B800000424FF4FA422C4B1A60E4E7294B1B6AEF
:100B900013F0807F03D02A4A274B1A60DBE7294AEB
:100BA000254B1A60234B1B6A03F07003102B05D0F2
:100BB000202BD0D1224A204B1A60CCE7224A1E4B70
:100BC0001A60C8E71B4B1B6A13F0807F16D01C4AC3
:100BD000194B1A60174B1B6B03F00303022BBAD19E
:100BE000144A916A926A1448C1F30A41036801FBEE
:100BF0000333D2B2B3FBF2F30360ACE7114A0E4BFE
:100C00001A600C4B1B6A03F07003102B05D0202BCD
:100C1000E0D10B4A084B1A60DCE70B4A064B1A601E
:100C2000D8E7054A13680949A1FB03135B08136061
:100C3000704700BF00060E400400402010180E4010
:100C4000001BB70000093D0000127A00ABAAAAAA57
:100C5000124B984211D9124B984213D9114B98421A
:100C600014D9114B984215D9104B984294BF4FF0AC
:100C700004220F4A0F4B1A6070474FF080620D4BF1
:100C80001A6070470C4A0B4B1A6070470B4A094BAD
:100C90001A6070470A4A074B1A607047FF2C3101EF
:100CA000FF596202FF869303FFB3C404FFE0F5051A
:100CB00000050004000C0E400001000400020004C6
:100CC000000300040A4B1B6853B1094B1B681A1838
:100CD0000849914208DB1046054A106018467047E3
:100CE000054A034B1A60F0E74FF0FF30704700BF32
:100CF000E8084020FCFF4520582B40204FF0FF30F3
:100D000070474FF400534B6000207047002070473D
:100D1000F0B583B005460C46002301932A4B984258
:100D200013D02A4B984218D0294B98421DD0294BFA
:100D30009D4222D0284B9D4227D0284B9D422ED049
:100D4000274B9D4235D003B0F0BD1F46254E2146AE
:100D50003846B0470028FAD1E9E71F46214E214620
:100D60003846B0470028FAD1E4E71F461D4E214619
:100D70003846B0470028FAD1DFE71F46194E214612
:100D80003846B0470028FAD1DAE71E46164D01A9C9
:100D90003046A8470028FAD1019B2370D3E71E46AE
:100DA000114D01A93046A8470028FAD1019B2370B4
:100DB000C9E71E460C4D01A93046A8470028FAD1C4
:100DC000019B2370BFE700BF00080E40000A0E40E1
:100DD000001A0E40001C0E400040024000800240FD
:100DE00000C002404F094000630A400070B50C4645
:100DF0002A4B984213D02A4B984219D0294B98423B
:100E00001FD0294B984225D0284B98422BD0284BF5
:100E1000984231D0274B984237D0002070BD1E46F3
:100E2000254D21463046A8470028FAD1012070BD43
:100E30001E46214D21463046A8470028FAD1012000
:100E400070BD1E461C4D21463046A8470028FAD1E9
:100E5000012070BD1E46184D21463046A847002887
:100E6000FAD1012070BD1E46144D21463046A847D8
:100E70000028FAD1012070BD1E46104D2146304693
:100E8000A8470028FAD1012070BD1E460B4D21460F
:100E90003046A8470028FAD1012070BD00080E4056
:100EA000000A0E40001A0E40001C0E400040024096
:100EB0000080024000C002403D0940004D0A400051
:100EC00038B504460D46064B984720B929462046BA
:100ED000044B984738BD29462046034B984738BDF8
:100EE0006F034000AD024000B102400000B583B086
:100EF00000210648064B98470190019B4FF0804126
:100F00000448054B984703B05DF804FB00C000405F
:100F10003509400000140E40C10E400010B582B0EB
:100F200004461020054B98470023009322464FF0BB
:100F300080410348034CA04702B010BD5905400052
:100F400000140E404703400010B5084C2046084BE3
:100F500098472046074B9847411C2046064B984728
:100F60004FF080410548064B984710BD30180E40A1
:100F7000E9084000D5084000ED08400000140E408C
:100F8000C10E400070B582B009480A4B984710F076
:100F9000010F01D102B070BD02AC002344F8043D42
:100FA000034E054D21463046A8470028FAD1F1E707
:100FB00000800240490A4000630A40002DE9804851
:100FC00087B0544B98474FF40042534B5A60534BF1
:100FD000534A1A60DFF8A891524BC9F80030524DBD
:100FE000524B2B604FF4E1330093C02301934FF435
:100FF000006302930024039404940E204C4EB047E7
:1010000043F60952694646484A4B98474448DFF838
:1010100074B1D8474248DFF870A1D047DFF86C813F
:10102000D8F8003021469868434FB847D8F80030C8
:1010300021465868B847D8F8003021469868B84724
:101040000B20B0470A20B04710224FF000513B4818
:101050003B4FB8474FF400124FF000613948B84792
:10106000394AD2F8143143F01003C2F81431039412
:10107000049405944FF4E1330093C02301934FF49B
:10108000006302930E20B04743F609526946244894
:10109000284B98472248D8472148D047214BC9F8C8
:1010A0000030224B2B6001211D48284B9847284DCA
:1010B000802385F80E334FF480432B602046254B68
:1010C00098470320B047244C4FF4C0412046234B9F
:1010D00098474FF440312046214B98470121204644
:1010E000204B98474FF4803120461F4B98470823E8
:1010F0002B6020461D4B98474FF480301C4B98477F
:1011000004211C481C4B984705251C4C2846A04729
:10111000FCE700BFAD01400050180E4028094020F8
:1011200000800240ED0D400020094020110D4000DC
:1011300059054000E50940007D12400000100E40B6
:10114000B5024000000E0E4000800840450A4000F5
:1011500000E100E01D0F400030180E408108400003
:10116000C1084000ED084000AD084000950840006F
:10117000AD05400010180E40310940001106400036
:1011800024094020390A40003F0A4000080040205E
:1011900070B50F4E0F4D761BB61018BF002405D04A
:1011A000013455F8043B9847A642F9D10A4E0B4D3D
:1011B000761B01F06BF8B61018BF002406D001347E
:1011C00055F8043B9847A642F9D170BD70BD00BFE9
:1011D0009822400098224000A0224000982240001F
:1011E00070B4860746D0541E002A41D0CAB20346C6
:1011F00002E014F1FF343BD303F8012B9D07F8D133
:10120000032C2ED9CDB245EA05250F2C45EA05451C
:1012100019D903F110022646103E0F2E42F8105C39
:1012200042F80C5C42F8085C42F8045C02F11002DF
:10123000F2D8A4F1100222F00F0204F00F041032D1
:10124000032C13440DD91E462246043A032A46F8BD
:10125000045BFAD8221F22F003020432134404F084
:1012600003042CB1C9B21C4403F8011B9C42FBD1FE
:1012700070BC704714460346C2E700BF00290CBF8C
:10128000022200224FF4806300F000B82DE9F04301
:10129000614C256883B004460F4690461E4615B142
:1012A000AB6B002B64D0B8F1020F06D0B8F1010F80
:1012B00000F29F80002EC0F29C80636ED80734D568
:1012C0002146284600F05AF9216B41B104F1400350
:1012D000994202D0284600F04BFA00232363B4F968
:1012E0000C300022A26162601A063AD423F44A63E9
:1012F00023F00303B8F1020FA3811DD001AB6A46AE
:101300002146284600F04CFBA3891843A081002EFB
:1013100032D1009E304600F071FB074600286BD0AA
:10132000A38943F08003A38128E0A3899905C7D44A
:10133000A06D00F031FBC3E70025616E002604F1CB
:10134000430243F002030120A660CE07A38122607E
:101350002261606101D498053ED5284603B0BDE8FE
:10136000F0832169284600F003FAB4F90C30BDE798
:10137000284600F05BF996E7002FCBD0AB6B002B33
:1013800033D0009BB4F90C2027609E421CBF42F46E
:101390000062A281B8F1010F04BF42F00102A281F4
:1013A00092B212F00803276166610ED0D1071AD5F8
:1013B000656E7642002315F00105A661A36009D091
:1013C0000025284603B0BDE8F083A360656E15F0E4
:1013D0000105F5D19305C0D4A06D00F0DFFA2846D1
:1013E00003B0BDE8F083A660F0E7284600F01EF9E0
:1013F000C7E74FF0FF35B0E7DDF80090B14504D006
:10140000484600F0FBFA074620B9B4F90C304FF01B
:10141000FF3592E74E4683E708004020024B13B1A8
:10142000024800F005B87047000000009D1640001B
:10143000002301461A46184600F010BEB1F90C30E0
:101440009AB22DE9F0410D46110780463AD46A68F8
:1014500043F40063002AAB816FDDAC6A002C49D0F5
:1014600000229BB2D8F80060C8F8002013F4805224
:1014700067D02A6D5F0705D569682B6B521A0BB1CF
:10148000EB6BD21A0023E9694046A047441C3CD0CC
:10149000B5F90C302A692A6023F400630022AB817D
:1014A000DB046A6047D4296BC8F8006011B305F10A
:1014B0004003994202D0404600F05AF900202863C8
:1014C000BDE8F0812E69AEB12C682E6091070CBF8B
:1014D0006B690023A41BAB600AE0234632466F6AA7
:1014E000E9694046B8470028A4EB0004064404DD3F
:1014F000002CF2DC0020BDE8F081AB8943F0400312
:10150000AB814FF0FF30BDE8F081D8F800401D2CD2
:10151000F3D8194BE340DB4313F00103EDD1B5F9E8
:101520000C206B6022F400632969AB81DA04296026
:10153000B9D5002CB7D12865B5E7EA6B002A8CDC59
:10154000D8E70123E9694046A047431C024602D080
:10155000AB89AC6A8EE7D8F80030002BF8D01D2B91
:1015600001D0162B02D1C8F80060C3E7AB8943F065
:101570004003AB81BDE8F0810100402038B50D4645
:10158000044608B1836BBBB1B5F90C0088B16B6E32
:10159000DB0701D4810517D520462946FFF74EFF0A
:1015A0006B6EDA07044602D4AB899B0507D520464B
:1015B00038BD0446204638BD00F038F8E4E7A86D91
:1015C00000F0ECF9204638BDA86D00F0E5F9E3E73E
:1015D000014900F0B3B900BF4521400010B5002318
:1015E00004468181C2810360436083604366036176
:1015F00043618361194608225C30FFF7F1FD07481B
:101600000749084A084B2062E4616162A262E36212
:1016100004F15800BDE8104000F0BAB9A91F40001D
:10162000CD1F4000092040002920400010B504468D
:10163000124800F0B1F9A26BD2B904F53B7310481F
:10164000C4F8E8320321C4F8E022E063C4F8E412ED
:1016500060680421FFF7C2FF01220921A068FFF79B
:10166000BDFF02221221E068FFF7B8FF0123A36348
:101670000248BDE8104000F091B900BF3809402091
:10168000D1154000014800F087B900BF4C09402047
:10169000014800F083B900BF4C09402038B50A4C1E
:1016A0000A4D641BA4100AD004F18043013B05EBF2
:1016B0008305013C55F804399847002CF9D1BDE861
:1016C000384000F0EDBD00BFB0224000AC22400029
:1016D000F8B5244F0C46064600F048FCBB685D6830
:1016E000C4F57E610F3125F00305294421F47F61A3
:1016F00021F00F01A1F58054B4F5805F07DB0021D4
:10170000304600F03FFCBB682B44984204D0304682
:1017100000F032FC0020F8BD6142304600F032FC9F
:1017200001300DD0104BBA6819682D1B45F001052A
:101730003046091B5560196000F01EFC0120F8BD01
:101740000021304600F01EFCBA68831A0F2BDEDD44
:10175000064C0549246843F00103001B53600860F0
:10176000D5E700BF3C044020EC084020440840205E
:10177000002944D02DE9F0410D46804600F0F6FBEB
:1017800055F8047C694927F00103A5F10804E21823
:101790008E685068B24220F003005ED0FE075060B1
:1017A0000BD455F8087CE41B01F1080EA5687545BB
:1017B0003B446DD0E768EF60BD6015186D68ED07BC
:1017C0003ED543F001026260E350B3F5007F17D2CB
:1017D000DB08581C9A104D6851F83070A76001233F
:1017E000934001EBC0022B43083AE2604B6041F8A2
:1017F0003040FC604046BDE8F04100F0BDBB7047A2
:101800005A0A042A52D89A0902F13907FF0002F154
:101810003805C819CA59083890424FD0516821F08C
:1018200003018B4232D292689042F7D1C368A06024
:10183000E3609C60C4604046BDE8F04100F09CBBA2
:1018400095683B4FBD42034440D0D068E86043F008
:10185000010285606260E350B7E7FF07034407D4E5
:1018600055F8082CA41A1344A068E268C26090607E
:10187000304A126843F00100934260608C60B9D333
:101880002D4B40461968FFF723FFB3E71046CDE71D
:1018900011184968C90744D49168D268CA600344E2
:1018A00043F0010091606060E350A3E7142A16D86A
:1018B00002F15C07FF0002F15B05AAE7AA10012311
:1018C0004D6893402B434B600346B0E743F0010261
:1018D0004C610C61E560A5606260E3508AE7542AC0
:1018E00006D81A0B02F16F07FF0002F16E0590E7B0
:1018F000B2F5AA7F06D8DA0B02F17807FF0002F1F1
:10190000770586E740F25450824206D89A0C02F1DD
:101910007D07FF0002F17C057BE74FF47E777E2593
:1019200077E743F001016160136063E73C04402006
:1019300044044020480840201C0940202DE9F84379
:1019400010F538771FD0884606464FF000097D68AD
:10195000BC68013D11D4A389012B05F1FF3508D9DD
:10196000B4F90E3001332146304602D0C04749EA6F
:1019700000096B1C04F16804EDD13F68002FE6D12B
:101980004846BDE8F883B9464846BDE8F88300BF3D
:10199000704700BF704700BF704700BF704700BF6F
:1019A00070B50C46B1F90E10002990B015461E46D0
:1019B00014DB01AA00F028FC00280FDB029A02F4D5
:1019C0007042A2F50052B2FA82F252094FF48063DB
:1019D0004FF4006032602B6010B070BDA28900230C
:1019E00012F08000336004D0402218462A6010B004
:1019F00070BD4FF480632B6010B070BD024B014688
:101A0000186800F003B800BF080040202DE9F04F2F
:101A100001F10B06162E83B0054640F29E8036F08B
:101A2000070600F1BD80B14200F2BA8000F09EFAD4
:101A3000B6F5FC7FC0F09382730A00F0B880042BE7
:101A400000F27981B30903F1390003F1380EC300C4
:101A5000BF4F3B44A3F108015C68A14206D10CE0F2
:101A6000002A80F2AA80E468A14206D0636823F0CD
:101A700003039A1B0F2AF3DD70463C69DFF8E4E2AA
:101A8000744500F0AB81636823F003039A1B0F2AAF
:101A900000F39081002AC7F814E0C7F810E080F244
:101AA0009D80B3F5007F80F06181DB0803F1010CBC
:101AB00099107A6857F83C80C4F8088001238B405D
:101AC00007EBCC0113430839E1607B6047F83C40E9
:101AD000C8F80C408210012494409C4200F28B8094
:101AE0001C4206D120F0030064001C4200F10400F7
:101AF000FAD007EBC009CC468046DCF80C309C4598
:101B000007D16DE1002A80F27B81DB689C4500F003
:101B10006781596821F003018A1B0F2AF2DDD3F88F
:101B20000CC0D3F8088000939C19284646F00106A3
:101B300042F001055E60C8F80CC0CCF808807C61FA
:101B40003C61C4F80CE0C4F808E065605A5000F04D
:101B500013FA009B03F108041EE0102920D800F0BE
:101B600005FA102618230220794F3B44A3F10802FE
:101B70005C68944200F03D816368E168A66823F0E8
:101B80000303234428465A68F16042F001028E6044
:101B90005A6000F0F1F90834204603B0BDE8F08F38
:101BA00000240C2320462B6003B0BDE8F08F4020BA
:101BB0004FF400734FF03F0E4AE72344E1685A6840
:101BC000A66842F00102F16028468E605A6000F07B
:101BD000D3F90834204603B0BDE8F08F23442846EB
:101BE0005A6842F001025A6000F0C6F908342046F3
:101BF00003B0BDE8F08FBC68636823F00308B0450C
:101C000004D3A8EB06030F2B00F38580DFF858916F
:101C1000504BD9F800201B680132334404EB080A0A
:101C200000F0558103F580530F3323F47F6B2BF0C5
:101C30000F0B5946284600F0A5F9411C024600F05A
:101C4000FC80824500F2F780434B196859441960C3
:101C500000F04D81D9F8000001301BBFA2EB0A0A49
:101C60005144C9F80020196012F0070100F01581F5
:101C7000C1F10800C1F580510244083102EB0B09A3
:101C8000C9F30B09A1EB09094946284601930092C3
:101C900000F078F9431C9DE80C0000F04381801AA5
:101CA000484440F001001968BA604944BC425060A1
:101CB000196017D0B8F10F0F40F2FB806068A8F1EF
:101CC0000C0222F0070204EB020E00F001004FF0BC
:101CD000050C10430F2A6060CEF804C0CEF808C08F
:101CE00000F217811D4BBC681A68914288BF1960C9
:101CF0001B4B1A689142626888BF196022F0030288
:101D00009642A2EB060301D80F2B04DC284600F014
:101D100033F9002440E7A21943F0010346F001061D
:101D200066602846BA60536000F026F90834204601
:101D300003B0BDE8F08F142B71D9542B00F2A380AF
:101D4000330B03F16F0003F16E0EC30080E600BF9A
:101D50003C0440201C094020EC084020140940208D
:101D60001809402044044020440840205A0A042A0C
:101D70005BD9142A00F2AE8002F15C01C9005B322B
:101D800007EB010C7958ACF1080C8C4500F0888009
:101D90004A6822F00302934273D289688C45F7D1D6
:101DA000DCF80C207B68E260C4F808C09460CCF8D2
:101DB0000C408FE6A11946F0010C42F00106C4F870
:101DC00004C0284679613961C1F80CE0C1F808E027
:101DD0004E60E25000F0D0F80834DDE67B6879E62A
:101DE00008F1010818F0030F0CF1080C7FF485AE20
:101DF0002DE0DC68A34208BF02303FF43EAEBBE6F4
:101E000019441C464A68DB6854F8086F42F0010226
:101E10004A602846F3609E6000F0AEF8BCE603F12D
:101E20005C0003F15B0EC30012E69A0902F139016E
:101E3000C9003832A4E7BC4254D0BC68626822F0C2
:101E400003025DE759F80839994540F0868010F0A3
:101E5000030F00F1FF30F5D17B6823EA04037B60B8
:101E600064009C423FF6C7AE002C3FF4C4AE1C4257
:101E700040467FF43EAE64001C4200F10400FAD0FC
:101E800037E68C468CE7B3F5AA7F15D8F30B03F140
:101E9000780003F1770EC300DAE54FF48051EDE6E8
:101EA0007B689210012101FA02F213437B606246C3
:101EB00079E70123536029E740F25452934222D834
:101EC000B30C03F17D0003F17C0EC300C0E503F108
:101ED000100BAEE6542A29D81A0B02F16F01C90083
:101EE0006E324DE7204B196859441960B2E6CAF3C7
:101EF0000B0000287FF4AEAE08EB0B03BA6843F08A
:101F000001035360EEE67F204FF47E734FF07E0EA8
:101F10009EE504F1080128460093FFF729FC009B89
:101F20001968DFE601204FF00009BCE6B2F5AA7F90
:101F300005D8DA0B02F17801C900773220E740F2C8
:101F400054518A4205D89A0C02F17D01C9007C32B5
:101F500016E74FF47E717E2212E77B6880E7F00877
:101F600006F1080300E600BFEC0840200148FFF737
:101F700013BD00BF3C0940200148FFF70FBD00BF63
:101F80003C09402038B5074C00230546084623602D
:101F9000FEF798FE431C00D038BD2368002BFBD011
:101FA0002B6038BD5009402010B50C46B1F90E1019
:101FB00000F054F9002803DB236D0344236510BDB2
:101FC000A38923F48053A38110BD00BF2DE9F04104
:101FD0001646B1F90C201F46D3050C46054607D519
:101FE00000220223B1F90E1000F022F9B4F90C20FE
:101FF000B4F90E1022F48052A2813B4632462846A4
:10200000BDE8F04100F014B810B50C46B1F90E105F
:1020100000F00EF9A389421C0EBF23F4805343F451
:1020200080532065A38110BDB1F90E1000F078B87F
:1020300070B50D46084C114606461A462846002340
:102040002360FEF70BF9431C00D070BD2368002B02
:10205000FBD0336070BD00BF500940202DE9F8432C
:102060002C4D0646286898460F469146FFF794FC8B
:10207000294B1C68D4F84831002B3ED05A681F2ADF
:102080001CDC02F1010E76B103EB82010124C1F8E0
:102090008890D3F8880194402043022EC3F8880129
:1020A000C1F8088123D00232C3F804E0286843F85D
:1020B0002270FFF773FC0020BDE8F883174B0BB3C9
:1020C0004FF4C870FFF79AFC0346D8B1D4F8482102
:1020D0000260002141600A46C4F848014FF0010E39
:1020E000C0F88811C0F88C11002EDCD0CCE7D3F8F2
:1020F0008C110C43C3F88C41D5E704F5A673C4F8E2
:102100004831BBE72868FFF749FC4FF0FF30BDE8D6
:10211000F88300BF3804402088224000FD194000A9
:1021200038B5074C0023054608462360FEF7E6FD58
:10213000431C00D038BD2368002BFBD02B6038BD7A
:102140005009402070B559B105460C4610B1836B5B
:10215000002B3CD0636ED80705D5B4F90C302BB9F1
:102160000026304670BDA38999053CD521462846F6
:10217000FFF764F9E36A064633B1E16928469847F8
:102180000028B8BF4FF0FF36A3891A0622D4216B6E
:1021900041B104F14003994202D02846FFF7E8FA22
:1021A00000232363616C21B12846FFF7E1FA002385
:1021B0006364FFF767FA636E0022DB07A2810ED526
:1021C000A06DFFF7E7FBFFF763FA304670BDFFF73E
:1021D0002DFABFE721692846FFF7CAFAD7E7A06DB5
:1021E000FFF7DCFBECE7A06DFFF7D6FBB4F90C3092
:1021F000002BBBD1666E16F00106B1D1A06DFFF7C2
:10220000CDFB304670BD00BF38B50B46074C0546C8
:102210001146184600232360FEF773FD431C00D0CF
:1022200038BD2368002BFBD02B6038BD50094020FF
:1022300070B50D46084C114606461A46284600233E
:102240002360FEF763FD431C00D070BD2368002BA4
:10225000FBD0336070BD00BF5009402070B50D4603
:10226000084C114606461A46284600232360FDF70F
:10227000D7FF431C00D070BD2368002BFBD0336018
:1022800070BD00BF5009402010004020F8B500BFCD
:10229000F8BC08BC9E4670471D1440006501400014
:1022A000F8B500BFF8BC08BC9E467047410140002D
:1022B0000100000000093D00100040200000000067
:1022C00000000000FC02402064034020CC034020BA
:1022D00000000000000000000000000000000000FE
:1022E00000000000000000000000000000000000EE
:1022F00000000000000000000000000000000000DE
:1023000000000000000000000000000000000000CD
:1023100000000000000000000000000000000000BD
:1023200000000000000000000000000000000000AD
:10233000000000000000000000000000000000009D
:10234000000000000000000000000000000000008D
:10235000000000000000000000000000000000007D
:10236000000000000000000001000000000000006C
:102370000E33CDAB34126DE6ECDE05000B00000031
:10238000000000000000000000000000000000004D
:10239000000000000000000000000000000000003D
:1023A000000000000000000000000000000000002D
:1023B000000000000000000000000000000000001D
:1026E00000000000000000002C0940200000000055
:1026F000000000003C0440203C04402044044020F2
:10270000440440204C0440204C0440205404402009
:10271000540440205C0440205C04402064044020B9
:10272000640440206C0440206C0440207404402069
:10273000740440207C0440207C0440208404402019
:10274000840440208C0440208C04402094044020C9
:10275000940440209C0440209C044020A404402079
:10276000A4044020AC044020AC044020B404402029
:10277000B4044020BC044020BC044020C4044020D9
:10278000C4044020CC044020CC044020D404402089
:10279000D4044020DC044020DC044020E404402039
:1027A000E4044020EC044020EC044020F4044020E9
:1027B000F4044020FC044020FC0440200405402098
:1027C000040540200C0540200C0540201405402045
:1027D000140540201C0540201C05402024054020F5
:1027E000240540202C0540202C05402034054020A5
:1027F000340540203C0540203C0540204405402055
:10280000440540204C0540204C0540205405402004
:10281000540540205C0540205C05402064054020B4
:10282000640540206C0540206C0540207405402064
:10283000740540207C0540207C0540208405402014
:10284000840540208C0540208C05402094054020C4
:10285000940540209C0540209C054020A405402074
:10286000A4054020AC054020AC054020B405402024
:10287000B4054020BC054020BC054020C4054020D4
:10288000C4054020CC054020CC054020D405402084
:10289000D4054020DC054020DC054020E405402034
:1028A000E4054020EC054020EC054020F4054020E4
:1028B000F4054020FC054020FC0540200406402093
:1028C000040640200C0640200C0640201406402040
:1028D000140640201C0640201C06402024064020F0
:1028E000240640202C0640202C06402034064020A0
:1028F000340640203C0640203C0640204406402050
:10290000440640204C0640204C06402054064020FF
:10291000540640205C0640205C06402064064020AF
:10292000640640206C0640206C064020740640205F
:10293000740640207C0640207C064020840640200F
:10294000840640208C0640208C06402094064020BF
:10295000940640209C0640209C064020A40640206F
:10296000A4064020AC064020AC064020B40640201F
:10297000B4064020BC064020BC064020C4064020CF
:10298000C4064020CC064020CC064020D40640207F
:10299000D4064020DC064020DC064020E40640202F
:1029A000E4064020EC064020EC064020F4064020DF
:1029B000F4064020FC064020FC064020040740208E
:1029C000040740200C0740200C074020140740203B
:1029D000140740201C0740201C07402024074020EB
:1029E000240740202C0740202C074020340740209B
:1029F000340740203C0740203C074020440740204B
:102A0000440740204C0740204C07402054074020FA
:102A1000540740205C0740205C07402064074020AA
:102A2000640740206C0740206C074020740740205A
:102A3000740740207C0740207C074020840740200A
:102A4000840740208C0740208C07402094074020BA
:102A5000940740209C0740209C074020A40740206A
:102A6000A4074020AC074020AC074020B40740201A
:102A7000B4074020BC074020BC074020C4074020CA
:102A8000C4074020CC074020CC074020D40740207A
:102A9000D4074020DC074020DC074020E40740202A
:102AA000E4074020EC074020EC074020F4074020DA
:102AB000F4074020FC074020FC0740200408402089
:102AC000040840200C0840200C0840201408402036
:102AD000140840201C0840201C08402024084020E6
:102AE000240840202C0840202C0840203408402096
:0C2AF00034084020FFFFFFFF0000020040
:0400000500400A7D30
:00000001FF
